:100000000C9463000C948B000C948B000C948B006C
:100010000C948B000C948B000C948B000C948B0034
:100020000C948B000C948B000C948B000C948B0024
:100030000C948B000C948B000C948B000C948B0014
:100040000C94AC020C948B000C941C030C94F602E0
:100050000C948B000C948B000C948B000C948B00F4
:100060000C948B000C948B000000000023002600F1
:10007000290000000008000201000003040700003E
:1000800000000000000000000000250028002B00F8
:1000900000000000240027002A00040404040404D3
:1000A0000404020202020202030303030303010227
:1000B00004081020408001020408102001020408F6
:1000C00010204E03D10511241FBECFEFD8E0DEBFB4
:1000D000CDBF21E0A0E3B1E001C01D92A63EB20772
:1000E000E1F711E0A0E0B1E0E0E7F0E102C0059047
:1000F0000D92A033B107D9F710E0C2E6D0E004C0FA
:100100002197FE010E943306C136D107C9F70E942C
:10011000C6030C942B080C940000833081F028F463
:10012000813099F08230A9F008958730A9F08830A5
:10013000C9F08430B1F4809180008F7D03C080913C
:1001400080008F7780938000089584B58F7784BD79
:10015000089584B58F7DFBCF8091B0008F77809319
:10016000B00008958091B0008F7DF9CFCF93DF93D9
:1001700090E0FC01E255FF4F249186569F4FFC0111
:1001800084918823D1F090E0880F991FFC01E057FB
:10019000FF4FA591B491FC01EA57FF4FC591D4914F
:1001A00061110EC09FB7F8948C91E22FE0958E23D9
:1001B0008C932881E223E8839FBFDF91CF9108953C
:1001C0008FB7F894EC91E22BEC938FBFF6CF2FB75B
:1001D000F89460913B0170913C0180913D019091B8
:1001E0003E012FBF08950895AF92BF92CF92DF9244
:1001F000EF92FF920F931F93CF93DF936C017B01DC
:100200008B01040F151FEB015E01AE18BF08C0176C
:10021000D10759F06991D601ED91FC910190F081DF
:10022000E02DC6010995892B79F7C501DF91CF91A2
:100230001F910F91FF90EF90DF90CF90BF90AF9004
:100240000895FC01538D448D252F30E0842F90E0DC
:10025000821B930B541710F0CF96089501970895C1
:10026000FC01918D828D981761F0A28DAE0FBF2F8A
:10027000B11D5D968C91928D9F5F9F73928F90E0E0
:1002800008958FEF9FEF08950F931F930E94E7004B
:1002900060934701709348018093490190934A010C
:1002A0008FE391E00E94300197FF1DC00E94E7009C
:1002B00000914701109148012091490130914A0174
:1002C000601B710B820B930B009143011091440151
:1002D000209145013091460160177107820793070D
:1002E000F8F28FEF9FEF1F910F910895FC01918D10
:1002F000828D981731F0828DE80FF11D858D90E089
:1003000008958FEF9FEF0895FC01918D228D892F25
:1003100090E0805C9F4F821B91098F73992708950D
:100320008FE391E00E94840121E0892B09F420E011
:10033000822F089580E090E0892B29F00E9490019F
:1003400081110C9400000895FC01A48DA80FB92F11
:10035000B11DA35ABF4F2C91848D90E001968F73ED
:100360009927848FA689B7892C93A089B1898C910C
:10037000837080648C93938D848D981306C002885B
:10038000F389E02D80818F7D80830895EF92FF9225
:100390000F931F93CF93DF93EC0181E0888F9B8DA8
:1003A0008C8D98131AC0E889F989808185FF15C062
:1003B0009FB7F894EE89FF896083E889F989808185
:1003C0008370806480839FBF81E090E0DF91CF9154
:1003D0001F910F91FF90EF900895F62E0B8D10E076
:1003E0000F5F1F4F0F731127E02E8C8D8E110CC0E5
:1003F0000FB607FCFACFE889F989808185FFF5CF30
:10040000CE010E94A401F1CFEB8DEC0FFD2FF11D69
:10041000E35AFF4FF0829FB7F8940B8FEA89FB896C
:1004200080818062CFCFCF93DF93EC01888D8823CA
:10043000B9F0AA89BB89E889F9898C9185FD03C047
:10044000808186FD0DC00FB607FCF7CF8C9185FF2C
:10045000F2CF808185FFEDCFCE010E94A401E9CFCC
:10046000DF91CF910895FC0101900020E9F73197C9
:10047000AF01481B590BBC018FE391E00C94F400D1
:100480008F929F92AF92BF920F931F93CF93DF9360
:10049000CDB7DEB7A1970FB6F894DEBF0FBECDBFC4
:1004A00019A2423008F44AE08E010F5D1F4F842EDE
:1004B000912CB12CA12CA50194010E941106E62FCC
:1004C000B901CA01EA30F4F4E05DD801EE938D0180
:1004D000232B242B252B79F790E080E0109719F03F
:1004E000CD010E943302A1960FB6F894DEBF0FBE75
:1004F000CDBFDF91CF911F910F91BF90AF909F9093
:100500008F900895E95CE1CF0F931F93CF93DF9312
:10051000EC0188819981009759F02A813B81261747
:10052000370730F081E0DF91CF911F910F9108954F
:100530008B016F5F7F4F0E945E07009759F0998390
:1005400088831B830A832C813D81232B59F7FC016F
:100550001082E8CF80E0E7CF1F920F920FB60F9284
:1005600011242F933F938F939F93AF93BF938091C9
:100570003B0190913C01A0913D01B0913E01309131
:100580003A0123E0230F2D3758F50196A11DB11D27
:1005900020933A0180933B0190933C01A0933D014D
:1005A000B0933E018091360190913701A0913801BE
:1005B000B09139010196A11DB11D80933601909330
:1005C0003701A0933801B0933901BF91AF919F914A
:1005D0008F913F912F910F900FBE0F901F90189504
:1005E00026E8230F0296A11DB11DD2CF1F920F92B4
:1005F0000FB60F9211242F933F934F935F936F93F6
:100600007F938F939F93AF93BF93EF93FF938FE36A
:1006100091E00E94A401FF91EF91BF91AF919F9152
:100620008F917F916F915F914F913F912F910F909B
:100630000FBE0F901F9018951F920F920FB60F923A
:1006400011242F938F939F93EF93FF93E0914F018A
:10065000F09150018081E0915501F091560182FDA9
:100660001BC09081809158018F5F8F732091590139
:10067000821741F0E0915801F0E0E15CFE4F958F68
:1006800080935801FF91EF919F918F912F910F903F
:100690000FBE0F901F9018958081F4CF10924201E9
:1006A0001092410188EE93E0A0E0B0E08093430116
:1006B00090934401A0934501B09346018AE091E0F4
:1006C0009093400180933F0185EC90E090934C0122
:1006D00080934B0184EC90E090934E0180934D0108
:1006E00080EC90E09093500180934F0181EC90E07A
:1006F000909352018093510182EC90E090935401C9
:100700008093530186EC90E09093560180935501BD
:10071000109258011092590110925A0110925B01E7
:100720001092DD011092DC011092DF011092DE01C7
:100730001092E1011092E00164E070E08CED91E034
:100740000E9484022091DC013091DD01811113C0EF
:100750002115310519F0C9010E94D5061092DD015D
:100760001092DC011092E1011092E0011092DF0181
:100770001092DE01089584E090E09093E10180936F
:10078000E00168E171E0C9010C942408CF93DF9384
:10079000CDB7DEB728970FB6F894DEBF0FBECDBF3A
:1007A000789484B5826084BD84B5816084BD85B54C
:1007B000826085BD85B5816085BD80916E00816058
:1007C00080936E00109281008091810082608093FE
:1007D0008100809181008160809381008091800000
:1007E0008160809380008091B10084608093B1002B
:1007F0008091B00081608093B00080917A00846025
:1008000080937A0080917A00826080937A00809150
:100810007A00816080937A0080917A00806880936A
:100820007A001092C100E0914F01F091500182E0F6
:100830008083E0914B01F0914C011082E0914D01D9
:10084000F0914E018FEC808310925701E09153019B
:10085000F091540186E08083E0915101F0915201C2
:10086000808180618083E0915101F091520180810B
:1008700088608083E0915101F0915201808180680D
:100880008083E0915101F091520180818F7D8083BE
:1008900060E083E00E94B60060E08DE00E94B60058
:1008A00061E08CE00E94B6000E94E7006093300196
:1008B0007093310180933201909333014EE7242EDF
:1008C00040E0342E0AEB10E026EAC22E20E0D22EC1
:1008D00030E0E32E30E0F32EE5E7F0E08491E1EB49
:1008E000F0E0B490EDE9F0E0A490AA2009F4D0C0C3
:1008F00081110E948D00EA2DF0E0EE0FFF1FE859F4
:10090000FF4FA591B4918C91B82291E080E009F459
:1009100090E0992E9092340180933501F1018491F9
:10092000F801A490F601B490BB20A1F081110E94BF
:100930008D00EB2DF0E0EE0FFF1FEA57FF4FA59162
:10094000B4918FB7F8949C919110A5C0A094A9225E
:10095000AC928FBF409030015090310160903201D5
:100960007090330153014201F8EE8F0EF3E09F1EA9
:10097000A11CB11C8091340190913501019709F0BF
:100980008CC00E94E700681579058A059B05C0F1B7
:100990008092300190923101A0923201B0923301E5
:1009A0008DE191E00E94330280E480937C0080918D
:1009B0007A00806480937A0080917A0086FDFCCF73
:1009C0008090780090907900092C000CAA08BB0850
:1009D0004AE0C501B401B7FE0DC06DE28FE391E0BE
:1009E0000E94C60166277727CB01681979098A0911
:1009F0009B094AE00E94400284E291E00E94330297
:100A00008FE391E00E948401181619060CF0A4C02F
:100A10001A8219821C821B821E821D8270E060E095
:100A2000CE0101960E94840229813A81811158C029
:100A30002115310519F0C9010E94D5061A821982C3
:100A40001E821D821C821B820E94440197FD50C0A1
:100A50008A30910509F44CC08F831886AD80BE8022
:100A6000EFEFAE1ABE0AB501CE0101960E948402D4
:100A7000882351F329813A818D819E81BE01695F6E
:100A80007F4F820F931F0E942408BE82AD82DCCF6D
:100A9000912C80E03FCFA92A5BCF0E94E700681528
:100AA00079058A059B0508F4ABCF84EF480E81E0F9
:100AB000581E611C711C40923001509231016092AD
:100AC00032017092330187E291E00E94330260911B
:100AD000300170913101809132019091330189CFC1
:100AE0001E821D8266E271E0C9010E942408ACCF1B
:100AF0008091DC019091DD010097E1F169817A81BB
:100B000061157105A9F14091DE015091DF012D8140
:100B10003E814217530760F10E9424088D819E8117
:100B20009093E1018093E0011E821D8289819A8168
:100B3000009711F00E94D5064091E0015091E1012B
:100B40006091DC017091DD018FE391E00E94F4007F
:100B500084E291E00E943302E114F10409F4BCCE76
:100B60000E949001882309F4AFCE0E940000ACCE11
:100B70000E94D50689819A819093DD018093DC01E2
:100B80008B819C819093DF018093DE018D819E811A
:100B90009093E1018093E0011A8219821C821B82EA
:100BA000C3CF8091DC019091DD01009711F00C948E
:100BB000D50608952F923F924F925F926F927F9247
:100BC0008F929F92AF92BF92CF92DF92EF92FF925D
:100BD0000F931F93CF93DF93CDB7DEB7CA1BDB0B09
:100BE0000FB6F894DEBF0FBECDBF09942A883988AE
:100BF00048885F846E847D848C849B84AA84B984B5
:100C0000C884DF80EE80FD800C811B81AA81B981C0
:100C1000CE0FD11D0FB6F894DEBF0FBECDBFED01D4
:100C20000895A1E21A2EAA1BBB1BFD010DC0AA1F2D
:100C3000BB1FEE1FFF1FA217B307E407F50720F045
:100C4000A21BB30BE40BF50B661F771F881F991FC0
:100C50001A9469F760957095809590959B01AC0109
:100C6000BD01CF010895EE0FFF1F0590F491E02D17
:100C700009940F931F93CF93DF938230910510F463
:100C800082E090E0E091E401F091E50130E020E0C5
:100C9000B0E0A0E0309799F42115310509F44AC07D
:100CA000281B390B24303105D8F58A819B816115C9
:100CB000710589F1FB0193838283FE0111C040819C
:100CC00051810281138148175907E0F048175907ED
:100CD00099F4109761F012960C93129713961C9347
:100CE0003296CF01DF91CF911F910F91089500931C
:100CF000E4011093E501F4CF2115310551F04217BD
:100D0000530738F0A901DB019A01BD01DF01F801A9
:100D1000C1CFEF01F9CF9093E5018093E401CDCFEE
:100D2000FE01E20FF31F8193919322503109398321
:100D30002883D7CF2091E2013091E301232B41F4A6
:100D400020910201309103013093E3012093E201ED
:100D500020910001309101012115310541F42DB799
:100D60003EB74091040150910501241B350BE091E1
:100D7000E201F091E301E217F307A0F42E1B3F0B11
:100D80002817390778F0AC014E5F5F4F24173507FD
:100D900048F04E0F5F1F5093E3014093E2018193AF
:100DA00091939FCFF0E0E0E09CCFCF93DF9300974B
:100DB000E9F0FC01329713821282A091E401B09114
:100DC000E501ED0130E020E01097A1F420813181B0
:100DD000820F931F2091E2013091E3012817390718
:100DE00009F061C0F093E301E093E201DF91CF915C
:100DF0000895EA01CE17DF07E8F54A815B819E017D
:100E000041155105B1F7E901FB83EA8349915991F5
:100E1000C40FD51FEC17FD0761F480819181029604
:100E2000840F951FE90199838883828193819B8335
:100E30008A83F0E0E0E012968D919C9113970097E1
:100E4000B9F52D913C911197CD010296820F931F18
:100E50002091E2013091E3012817390739F63097E4
:100E600051F51092E5011092E401B093E301A093D3
:100E7000E201BCCFD383C28340815181840F951F8F
:100E8000C817D90761F44E5F5F4F88819981480F79
:100E9000591F518340838A819B81938382832115CB
:100EA000310509F0B0CFF093E501E093E4019ECF66
:100EB000FD01DC01C0CF13821282D7CFB0E0A0E0E9
:100EC000E4E6F7E00C94DC058C01009751F4CB01CB
:100ED0000E9439068C01C801CDB7DEB7E0E10C9461
:100EE000F805FC01E60FF71F9C0122503109E217BB
:100EF000F30708F49DC0D901CD91DC911197C61775
:100F0000D70798F0C530D10530F3CE010497861786
:100F1000970708F3C61BD70B2297C193D1936D9304
:100F20007C93CF010E94D506D6CF5B01AC1ABD0AD7
:100F30004C018C0E9D1EA091E401B091E501512C55
:100F4000412CF12CE12C109731F58091E201909128
:100F5000E3018815990509F05CC04616570608F0AC
:100F600058C08091000190910101009741F48DB724
:100F70009EB74091040150910501841B950BE81721
:100F8000F90708F055C0F093E301E093E201F9019D
:100F900071836083A0CF8D919C91119712966C9074
:100FA000129713967C901397A815B90559F56C0103
:100FB00042E0C40ED11CCA14DB0420F1AC014A1972
:100FC0005B09DA011296159780F062827382518371
:100FD0004083D9016D937C93E114F10471F0D70142
:100FE0001396FC93EE93129776CF22968C0F9D1F4B
:100FF000F90191838083F301EFCFF093E501E09352
:10100000E40169CF4816590608F42C017D01D3018B
:101010009ACFCB010E9439067C01009749F0AE01BE
:10102000B8010E941B08C8010E94D506870153CF52
:1010300010E000E050CFFB01DC0102C001900D92F6
:1010400041505040D8F70895FB01DC0101900D920A
:101050000020E1F7089510E0C2E6D0E004C0FE01F0
:101060000E9433062196C336D107C9F7F894FFCF03
:101070000000E601800000000000C601F40021012C
:101080001302840130017601686F6C610044617461
:10109000613A20000D0A0044617461323A20000078
:00000001FF
